:100C85000A0CC0F9A4B0999282F88090020800007D
:0B0C9500091AFFFFFFFFFFFFFFFF0039
:040CA1007F507EC33F
:0B0CA500EF1FAC0670011E4C70F62221
:1009E4008E338F34AB05AA04E4F52BF52CD2B4AEC8
:1009F40033AF347C007D0A120B08740C2FF8E6F533
:100A0400807FE87E03120CA5C2B4D2B5AE33AF34F6
:100A14007C007D0A120B08740C2DF8E6F5807FE843
:100A24007E03120CA5C2B5D2B67C007D0AAF03AE1C
:100A340002120B08740C2FF8E6F5807FE87E03128F
:100A44000CA5C2B6D2B77C007D0AAF03AE02120B6E
:100A540008740C2DF8E6F5807FE87E03120CA5C21D
:100A6400B7052CE52C7002052BC3941EE52B64807E
:080A7400948050030209F122F5
:1008000085182D85192E850A23850B24E50B2517C0
:10081000CFE50A3516CF2401F530E43FF52FC3E5C7
:10082000199517CFE5189516CF24FFF526EF34FF5D
:10083000F525AE16AF178E298F2A8E278F28C3E590
:100840002F648094804052E523648094804021C2CC
:10085000A0C2A1D2A2D2A5C2A4C2A3AD30AC2FAF78
:1008600024AE231209E4E524152470231523801FE8
:10087000C2A0D2A1C2A2D2A5C2A4C2A3AD30AC2F45
:10088000AF28AE271209E4E528152870021527E5E0
:1008900030153070A9152F80A5C3E52D6480948094
:1008A0004052E525648094804021D2A0C2A1C2A21A
:1008B000C2A5C2A4D2A3AD26AC25AF2EAE2D12097F
:1008C000E4E526152670231525801FD2A0C2A1C2FB
:1008D000A2C2A5D2A4C2A3AD2AAC29AF2EAE2D12BE
:1008E00009E4E52A152A70021529E52E152E70A9AE
:0508F000152D80A5227A
:1008F500C2902093110509E5097002050814241A10
:10090500F87601120CA12094110509E5097002057C
:100915000814241AF87604120CA12095110509E58E
:10092500097002050814241AF87607120CA12096FE
:10093500110509E5097002050814241AF876FE1256
:100945000CA1D290C2912093110509E50970020509
:100955000814241AF87602120CA12094110509E551
:10096500097002050814241AF87605120CA12095C1
:10097500110509E5097002050814241AF87608120C
:100985000CA12096110509E5097002050814241A21
:10099500F8E4F6120CA1D291C2922093110509E553
:1009A500097002050814241AF87603120CA1209484
:1009B500110509E5097002050814241AF8760612CE
:1009C5000CA12095110509E5097002050814241AE2
:0F09D500F87609120CA1209603120CA1D29222DF
:100B93008016C3E5099409E50864809480507312B4
:100BA30008F5E51A64FE6007E4F508F50980E3C378
:100BB300E5099403E50864809480500BE51AB4FEBC
:100BC30006D2A2C2A0C2A1C3E5099403E5086480CA
:100BD30094804017E5099406E50864809480500BDF
:100BE300E51DB4FE06C2A2C2A0D2A1C3E5099406C4
:100BF300E50864809480409AE5099409E5086480D7
:100C03009480508EE52064FE7088C2A2D2A0C2A157
:030C1300808022BC
:100C1600E4F5A0D2AFD2A8120B93E51B75F00AA497
:100C2600AEF07C00251CF50BEC3EF50AE51E75F0D2
:100C36000AA4AEF0251FF517EC3EF516E52175F072
:100C46000AA4AEF02522F519EC3EF518120800802C
:010C5600FBA2
:03000300020C5795
:100C5700C0E0C0F0C0D075D000C000C002C003C063
:100C670004C005C006C00775180075190A750A0083
:0E0C7700750B1475160075170312080080FB2C
:03000000020A7C75
:0C0A7C00787FE4F6D8FD758134020AC3CF
:100B0800C2D5EC30E709B2D5E4C39DFDE49CFCEE08
:100B180030E715B2D5E4C39FFFE49EFE120B3EC337
:100B2800E49DFDE49CFC8003120B3E30D507C3E432
:060B38009FFFE49EFE2277
:100A8800020C16E493A3F8E493A34003F68001F262
:100A980008DFF48029E493A3F85407240CC8C3336F
:100AA800C4540F4420C8834004F456800146F6DF3E
:100AB800E4800B0102040810204080900C85E47E3D
:100AC800019360BCA3FF543F30E509541FFEE49333
:100AD800A360010ECF54C025E060A840B8E493A3FA
:100AE800FAE493A3F8E493A3C8C582C8CAC583CA25
:100AF800F0A3C8C582C8CAC583CADFE9DEE780BEDD
:010CA0000053
:100B3E00BC000BBE0029EF8DF084FFADF022E4CC9B
:100B4E00F875F008EF2FFFEE33FEEC33FCEE9DEC64
:100B5E00984005FCEE9DFE0FD5F0E9E4CEFD22EDAA
:100B6E00F8F5F0EE8420D21CFEADF075F008EF2FF4
:100B7E00FFED33FD4007985006D5F0F222C398FDE5
:050B8E000FD5F0EA2282
:00000001FF
