:10000000758921758DFD759850D28E7BFF7C317D71
:10001000FF79317590FF113AB9310280F4BBFF04CA
:10002000EAFB800EBC3104E9FC8007BDFF04EAFD59
:1000300080008999312B313180D77590EFE590544C
:10004000EFB4EF1F7590DFE59054DFB4DF4075909B
:10005000BFE59054BFB4BF5B75907FE590547FB40B
:100060007F7A2230900930910C30920F30931279C0
:10007000377A0780A879347A0480A279317A0180AE
:100080009C7599FE312B759901312B010B22309013
:100090000930910C30920F30931279387A08011D93
:1000A00079357A05011D79327A02011D79307A009D
:1000B000011D2230900930910C30920F309312794B
:1000C000397A09011D79367A06011D79337A0301DF
:1000D0001D793D8999312B313111F9223090093048
:1000E000910A30920B30930C792F011D7978011D04
:1000F000792D011D792B011D22EBBC2B032D8014C2
:10010000BC2D04C39D800DBC78058DF0A480058DA9
:10011000F084800075F00A842430FEE5F02430FF7E
:100120008E99312B8F99312B0111223099FDC29973
:0E013000227905758C3C758AB0D28C308DFD1D
:07013E00C28DC28CD9EF2233
:00000001FF
