:03000000020030CB
:0300030002009365
:030013000200994F
:10003000D2B079007A0075A885C288113F80F1207E
:1000400080093080FD09B96402790020810930817E
:10005000FD19B9FF027963116A30B0E30ABA64DFAF
:10006000097A00B964D9790080D5E975F00A8475F8
:100070009001F5A0119E75900285F0A0119EEA7581
:10008000F00A84759004F5A0119E75900885F0A083
:10009000119E2230B2FDB2B03279007A00327589F9
:1000A00001758CF6758A3CD28C308DFDC28DC28C68
:0100B000222D
:00000001FF
